:020000041000EA
:1000000000B5324B212058609868022188439860DF
:10001000D860186158612E4B002199600221596106
:100020000121F02299502B49196001219960352056
:1000300000F044F80222904214D00621196600F024
:1000400034F8196E01211966002018661A6600F04E
:100050002CF8196E196E196E052000F02FF8012189
:100060000842F9D1002199601B49196000215960AB
:100070001A491B48016001219960EB211966A021F2
:10008000196600F012F800219960164914480160C1
:100090000121996001BC002800D000471248134993
:1000A000086003C880F30888084703B5996A0420EC
:1000B0000142FBD001200142F8D103BD02B5186610
:1000C0001866FFF7F2FF186E186E02BD00000240BE
:1000D000000000180000070000035F00212200005C
:1000E000F4000018222000A00001001008ED00E03C
:1000F00000000000000000000000000074B24E7A12
:1001000000200420F7010010C3010010C5010010F9
:10011000C1010010C1010010C1010010C101001097
:10012000C1010010C1010010C1010010C701001081
:10013000C1010010C1010010C9010010CB01001065
:10014000CD010010CD010010CD010010CD01001037
:10015000CD010010CD010010CD010010CD01001027
:10016000CD010010CD010010CD010010CD01001017
:10017000CD010010CD010010CD010010CD01001007
:10018000CD010010CD010010CD010010CD010010F7
:10019000CD010010CD010010CD010010CD010010E7
:1001A000CD010010CD010010CD010010CD010010D7
:1001B000CD010010CD010010CD010010CD010010C7
:1001C00000BE00BE00BE00BE00BE00BE00F04BF888
:1001D000103800BEF2EB8871C82E0010F02E00100F
:1001E0003402001090A31AE700202149086006C8D5
:1001F00081F3088810471F48006800282FD10DA4FC
:100200000ECC002902D000F012F8F9E71A491B4A77
:10021000002000E001C19142FCD1194988471949E9
:1002200088471949884700BEFDE701C901C29A42C3
:10023000FBD37047F02E0010C000002048020020C1
:1002400078300010000004200000042078300010F6
:1002500000100420001004200000000070470B482C
:1002600001F042FC0047EFF30580C0B27047000088
:1002700008ED00E0000000D0480200201C0600202D
:10028000A91200105D0300109913001057560000CA
:1002900006005250ABB36053782D00100600525048
:1002A000861C0302882D0010060052505422A29D85
:1002B000942D001005005250DE65F468783000106F
:1002C000F8B5C0460448054B10B5834203D0044B33
:1002D000002B00D0984710BD4802002048020020A3
:1002E0000000000006480749091A8B10C90FC918F9
:1002F00010B5491003D0044B002B00D0984710BD17
:1003000048020020480200200000000010B5074C01
:100310002378002B09D1FFF7D5FF054B002B02D026
:10032000044800E000BF0123237010BD48030020F3
:1003300000000000982C0010054B10B5002B03D0D6
:100340000449054800E000BFFFF7CCFF10BDC046E0
:10035000000000004C030020982C0010802330B5D2
:100360005B009DB0002404936B46082069469C8284
:100370005223244A091812785330CA546844102270
:100380000021029401F00CFD1B9401F06FFE1E4C45
:100390001E49200001F036FF0321042000F03CF844
:1003A0000321052000F038F800220121042000F08C
:1003B0004BF800220121052000F046F8FF237022AF
:1003C00071210194009302A802F0C6F9002816D00A
:1003D000FA20400000F0DCFB0D4C2378002B0BD002
:1003E0000C4D6622290002A802F0DCFB642000F01C
:1003F000CFFB2378002BF4D100201DB030BD01F0DD
:10040000E5FFE5E7002D001024020020A086010092
:100410007C010020982C0010094A83009446402259
:10042000634410B51C68C0006240C02414408022A0
:10043000520113431C60034B9C466044416010BD55
:1004400004C00140004001400A4B80009C46042348
:100450006044002901D00C230821002A00D10B00A0
:10046000026853400C221A4080235B01184302604B
:100470007047C04604C001400123D02283401206C9
:1004800093629361094A8300944640226344196849
:10049000C0004A40C021114080225201134319601C
:1004A000034B9C46052360444360704704C00140F1
:1004B00000400140F8B5EFF3108772B60E4E336876
:1004C000002BFCD0BFF35F8FCB08C4180725A446D0
:1004D000C45C01230D40AB4018002040234208D1EA
:1004E000624623431370BFF35F8F306087F3108839
:1004F000F8BD100000F052FF2C0100D0024B18682C
:100500008007C00F7047C04600C006400021044B62
:10051000044ABFF35F8F02C39342FAD17047C046CB
:10052000000100D0800100D0044A1078431CDBB2E7
:10053000172B00D9102313707047C0467D0100208F
:10054000F8B5040006200D0001F0A4F8002845D0FD
:100550002B4B2C49E3185A4253418022D203944634
:100560005B421340284A63441360284A1360180012
:100570008A689043FBD1224B8021E3185A425341B1
:10058000234A5B0049000620995201F083F82900B4
:10059000C00001F0FFFAC30921D140270122260043
:1005A00080256262A36200232C36AD0135432B60A7
:1005B000062001F06FF83900800001F0EBFA6023AB
:1005C000E26A53406E221A4080235B0133431A6073
:1005D000104B236310232B600D3BA364F8BD0E4A20
:1005E000934203D900230D4F0D4AD8E77F221040D4
:1005F000013040089F011A003F180300CFE7C046B2
:100600000080FCBF00C0004000E0004000F000405F
:100610001804002001030000FEFF0000C0FF3F009F
:10062000FFFF000083680B4810B5844661446244B4
:10063000090112019A18591854684B6801209C420C
:1006400001D802D00020C0B210BD12680B689A42D7
:10065000F9D8F7E7FFFFFF0F0A4B1968EFF3108097
:1006600072B60A68002AFCD0BFF35F8F1B68BFF325
:100670005F8F00221A6080F3108840BF00200021A5
:100680007047C046FC030020F8B557464E46454625
:10069000DE46E0B5434D81468A466A68EFF310882E
:1006A00072B61368002BFCD0BFF35F8F2E68B47B4B
:1006B000002C3ED0670033683F19033FDA195378A6
:1006C000B373002B00D1F373002393705370137036
:1006D000A968354A8C464946A21812016244116045
:1006E000514651603149D36091603268D21993709C
:1006F00053701370737B9B46002B35D0220019007A
:10070000B068736898473268002820D05B46584626
:100710005B005B44D719033BB870D118D35C002B46
:1007200000D07B705B460C7073735C451DD0002657
:1007300026E06B68BFF35F8F1C6088F31088012090
:1007400040423CBC90469946A246AB46F8BD5B464B
:100750005B005B44033BD3189C70D119D25D002A27
:1007600000D05A705B460B7074734A465346287D1E
:1007700000F0F2FA061EDAD02100286800F056FDDB
:10078000EB686A681B19013B1B78BFF35F8F002180
:10079000116088F310880020002ED2D11802204367
:1007A000CFE7C04680010020FFFFFF0F5906001071
:1007B000F8B5574645464E46DE46E0B599460CAB81
:1007C00019780DAB1B78050090469A4607680029FA
:1007D00012D1BE7B002E45D074003B68A419033CA7
:1007E0001B195A783100BA73002A00D1FA7300221B
:1007F0009A705A701A7003E00E004C006418033CA3
:100800002C4B00229C46AB6861449C464346090140
:1008100061440B604B464B600A9B8B600B9BCB602B
:100820003B681B199A705A701A707B7B9B46002B91
:100830002CD032005946B8687B6898473A6800283F
:1008400017D05B4658465B005B441419033BA0700D
:10085000D118D35C002B00D063705B460E707B73A5
:10086000B34514D030003CBC90469946A246AB46F6
:10087000F8BD5B465B005B44033BD3189E701119C7
:10088000125D002A00D05A705B460B707E734246A0
:100890004B46287D00F060FA041E06D05346002B1C
:1008A00003D13100286800F0C1FC0E9B002BD9D089
:1008B0001C70D7E7FFFFFF0FF0B5DE464E465746E8
:1008C00045460023E0B58DB00A936B4B8200D358A8
:1008D0000B90994600239B464B46079300F0DCF9AA
:1008E000079C06000F006268EFF3108572B613686C
:1008F000002BFCD022000794BFF35F8F2468637B3A
:100900009946002B67D092685C4B90464B441B0184
:10091000984443461A685B6810001900801BB9416F
:1009200000295FDD0B9800F017FA00230026984697
:1009300000279A46079C6368BFF35F8F5A461A6088
:1009400085F310885346002B08D10028C6D10DB07E
:100950003CBC90469946A246AB46F0BD0A9B414638
:1009600018024B461843D047089009916268EFF38C
:10097000108572B61368002BFCD00794BFF35F8F0D
:100980000899099A002A48DB114303D0079B1B6989
:10099000002B5DD1079B1B68DA7B002A07D0510032
:1009A0008A1819688C4649466244033A51704A468F
:1009B000DA734B46079A013BD168CA5C0132CA54CC
:1009C0005B46079A13615368BFF35F8F5A461A60FC
:1009D00085F3108882E700230026984600279A4670
:1009E0000020A7E7002901D100289BD10021200089
:1009F00000F07EFB43461E685F689B68079A9A4634
:100A00004346DB689846D3684B44013B1B780A9306
:100A10001B020343136100208CE72369002BB9D02C
:100A200033003C005B1A94411A002300A74219D8F6
:100A30009F421BD0594604910121039149460291DE
:100A400041460191514607980091FFF7B1FEB7E783
:100A500000F022F9089A099B06000F0092197B41C9
:100A60009942E5D901225242D317E3E79642E1D9F0
:100A700001225242D317DDE7E8030020FFFFFF0FFA
:100A800010B5124C6368002B04D00A21104800F006
:100A9000F5F910BD23000F4A1021206800F046FA36
:100AA000032000F0EDF8032000F0C8F903200A4904
:100AB00000F00CF9FFF738FD084B9C460323604417
:100AC0002375074B80006060DC60DEE7800100205A
:100AD000FC03002025060010B90800104000003477
:100AE000E8030020F0B504000D0006267642F71753
:100AF000C64636196F4100B58F4213D810D000F0AA
:100B0000CBF832003B00121A8B41002B14DC002B77
:100B100037D02900200000F0C9F804BC9046F0BD91
:100B20008642ECD90026002700F0B6F832003B00E0
:100B3000121A8B41002BEADD30003900FFF7A4FDCB
:100B40000028E6DB00239846BC460F4A0F4F7B6A1D
:100B50009C4504D8B96A8E42DBD99C45D9D111682D
:100B6000EFF3108072B60B68002BFCD0BFF35F8FE1
:100B70001368BFF35F8F4146196080F3108820BF70
:100B8000E5E7002AC5D0D7E7FC0300200040054078
:100B900070B5060000F080F8FA2204000D00002372
:100BA00030000021920001F091F8001969418D4256
:100BB00005D802D0FFF796FF70BD8442FAD9012014
:100BC0004042C117F6E7C046F0B5D6464F46464606
:100BD000C0B5EFF305833F22134018001038EFF340
:100BE000108C72B6204D2A68002AFCD0BFF35F8FAC
:100BF0000122110081401D4C884661631C49170089
:100C00000E788A463100C1400F400A4215D019497A
:100C10008200646A51588C4219D3174BD25843460C
:100C20009E4353461E70BFF35F8F00232B608CF3EF
:100C30001088002A06D0904704E0BFF35F8F2F6032
:100C40008CF310881CBC90469946A246F0BD0B4A16
:100C50009B00904643441A681A60BFF35F8F0023DD
:100C60002B608CF31088EDE7280100D00040054090
:100C7000160400200004002064030020D03F05403B
:100C800010B50100024A0348FFF714FC10BDC0462E
:100C90001C2D001014040020034B596A0A00986AA6
:100CA000596A8A42FAD1704700400540064A536AA1
:100CB0009942FCD807D1044B02E05A6A914202D112
:100CC0009A6A8242F9D370470040054070B504002B
:100CD0000D00EFF3108672B61A4A1368002BFCD091
:100CE000BFF35F8F002D1BD0200000F0EBFC1649F6
:100CF00081420AD0200000F0EDFC0121200000F02C
:100D0000CFFC0123A340114A1360114BA400E5500E
:100D1000BFF35F8F00220B4B1A6086F3108870BD03
:100D20000B4BA200D5500122A2400A4920000B78AB
:100D300093430B70044900F0F7FC0021200000F001
:100D4000AFFCE5E7280100D0C90B00103860054072
:100D50006403002016040020F0B54F46D6464646F0
:100D6000C0B50700304C616A0D00A66A616AA942ED
:100D7000FAD18B4208D805D001201CBC9046994678
:100D8000A246F0BDB242F7D9EFF3108972B62748F8
:100D900001680029FCD0BFF35F8F01252449BD40C5
:100DA0008C460978204C0E002E438846F1B28A46C4
:100DB000614650460870391D1E48890065630A5116
:100DC000B9000B50216A0020294219D0616A08003D
:100DD000A66A616A8142FAD18B4219D801D1B24226
:100DE00016D8C2451DD0104B1F201D625D63012324
:100DF0000740BB40104A1E381360634642461A70D3
:100E0000BFF35F8F0022094B1A6089F31088B4E7A3
:100E10000020BFF35F8F0022044B1A6089F3108813
:100E2000ABE70120ECE7C04600400540280100D0B8
:100E3000160400200004002080E200E010B5EFF36B
:100E4000108472B60A490B68002BFCD0BFF35F8F89
:100E500001238340074A0848136202789A430270CC
:100E6000BFF35F8F00230B6084F3108810BDC04672
:100E7000280100D00040054016040020024B9C468B
:100E800061448900016070474000003410B50400DF
:100E9000FFF74AFB01002000FFF7F0FFFF2323715B
:100EA000BFF35F8F10BDC04610B50400FFF73CFBD9
:100EB00001002000FFF7E2FFFF23A380BFF35F8F55
:100EC00010BDC04670B505000E001400002924D0E6
:100ED000002A24D080686B689847296800280ED0C3
:100EE00063001B197200033B9219CB18033A9E70E2
:100EF00088188A5C002A14D1047030000EE0730058
:100F00009B196200033B1219CB18033A9C70881896
:100F10008A5C002A00D05A700670200070BD08005C
:100F2000FCE75A7004703000F8E7C04630B58360C3
:100F30000023CCB243730133047342608373C473E0
:100F40000D000068012C06D9421C0133DBB213707E
:100F500003329C42F9D1FF2129404B00591800234C
:100F600040180338437030BDF8B5CE4647460600FA
:100F70000C0080B5002907D04D0003686D18033DB3
:100F80005A195778002F04D120000CBC904699467E
:100F9000F8BD7900C9190339884643445978894610
:100FA00000215970517073683A0021008068984799
:100FB0003368002814D042469A18947059195B5D22
:100FC000002B00D053700F70270049463000FFF708
:100FD000CBFF390002003000FFF774FF0400D3E7B5
:100FE000424641465D19AF709A185B5C002B00D0F9
:100FF0006B701470E9E7C046F0B557464546DE46CB
:101000004E46E0B50D006B0001685B19DF1E040061
:10101000C85D83B00192CA1900284CD043001B1848
:10102000033BCB185E78B446002E16D1019E002EED
:101030003ED0E67B002E04D073009B19CB18033BF7
:101040005D70E57300282FD10023537003B03CBCC2
:1010500090469946A246AB46F0BD72006244033A00
:1010600089184A78904600224A7091465A700100C9
:1010700032002000FFF726FF43468246002B07D0B0
:101080005B0021684344033BCB185A78002A16D1F1
:10109000424651462000FFF715FF2168019BCA19FF
:1010A000002BC6D10028CFD043001B18033BCB1820
:1010B00000219970C8E7019B002BBAD1C4E750000A
:1010C0008018033809184878834648464870587095
:1010D00041462000FFF7F6FE594680462000FFF704
:1010E00043FF414602002000FFF7ECFE8046CFE7B9
:1010F000F0B54E464546DE465746E0B5467B040011
:1011000075000068AD19033D83B00191415D42193E
:1011100000294ED04B005B18033BC3185F78BC46D8
:10112000002F18D1019D002D40D0E57B002D04D06B
:101130006B005B19C318033B5E70E673002931D165
:10114000002330005370617303B03CBC9046994655
:10115000A246AB46F0BD7A006244033A801842785A
:1011600093460022427091465A7020003A00FFF7E1
:10117000A9FE5B468046002B07D05B0021685B44DC
:10118000033BCB185A78002A17D15A464146200013
:10119000FFF798FE019B010020684219002BC4D183
:1011A0000029CDD04B005B18033BC318002098707A
:1011B000C6E7019B002BB8D1C2E750008018033866
:1011C00009184878824648464870587059462000A9
:1011D000FFF778FE53468346002B07D05B0021685B
:1011E0005344033BCB185A78002A06D1594652463D
:1011F0002000FFF767FE8346C7E7500080180338DA
:10120000091848464F784870587051462000FFF73B
:1012100059FE390081462000FFF7A6FE494602002C
:101220002000FFF74FFE8246E0E7C04670B504009D
:1012300000292CD0437B8B422ED0056848004018F3
:10124000033828188278002A21D053009B18033BCA
:10125000EA5CEE188A4202D11BE0002A08D0530053
:101260009B18033BEB185A788A42F6D142785A70A1
:1012700000230122837043702000FFF7BDFE617BD5
:1012800002002000FFF71EFE6073012000E0002036
:1012900070BD43783370EBE701221900FFF7ACFE15
:1012A00060730120F4E7C0462C4B2D4A70B51A60DC
:1012B0002C4A2D4B2D491A6010008B689843FBD1A6
:1012C0002B4C2C4B9C4209D2013B1D1BAD08013518
:1012D000AD002D1908CC9847AC42FBD100F07CF84A
:1012E000254A214B1A60214A9368DB018033FBD1E8
:1012F0004022224B224C234D9A675A671A67DA66BE
:10130000AC4208D223682000002B21D00834FFF71C
:10131000CBFDAC42F6D31C4C1C4DA168C02228006A
:1013200000F044FDA560FFF7F1F800F033FBFFF794
:10133000A7FB174C174B9C4209D2013B1D1BAD0864
:101340000135AD002D1908CC9847A542FBD170BDE1
:101350000834FFF79BFDAC42D4D3DCE700E000404B
:10136000BFCDFBFEFE7F3C0000F0004000C000400F
:101370003402002044020020FFFFFF0100F0014082
:101380002C0200203402002000ED00E000000020CC
:10139000440200204802002000BEFDE70FB400B563
:1013A000084883B000F02CFE049B002B07D005A951
:1013B0001800019100F078FB034800F021FE00BE08
:1013C000FDE7C046402D0010502D001010B501481B
:1013D000FFF7E4FF542D001030B50C2083B000F06F
:1013E0003FFBFFF78BF800280ED0944B944A1A600D
:1013F0005A609A60DA601A615A619A61DA611A6217
:10140000904A5A6203B030BD8F4CA06700F030FBA9
:1014100001228E4B1A60636C012BFCD103228C4B92
:101420001A60894A936B012BFCD102240121894A5D
:1014300089480533009400F0BFFA0523874A01214B
:101440008748009400F0B8FA864B5A68FF2A02D801
:10145000802252005A608022784C7D4B2169120113
:10146000804D1A60002905D0606900F093FB0130BF
:101470000138FDD1E0217B4B02201A681140802207
:1014800052012A431160196848400321014011604C
:1014900004219A681142FCD08022802192012A43C3
:1014A00009011160802252005A606F4B23616F4B1B
:1014B0005968FF2900D85A6003226C48634B012108
:1014C0001A60020093681942FCD0E02513681D40A1
:1014D00080235B0103431D6012684A4003211140D1
:1014E00019600221614A93681942FCD0802380214F
:1014F0009B0103430901196080215D4B4900516044
:1015000063615C4B5A68FF2A00D8596080225A4BAD
:10151000E1691201574D1A60002905D0606900F099
:1015200039FB01300138FDD1E02252490B681A40E5
:1015300080235B012B431A60802380229B012B4375
:1015400012011A6080223E4B52004A60E3614B4B0D
:101550005968FF2900D85A608022494B216A12013C
:10156000464D1A60002905D0606900F013FB013078
:101570000138FDD1E02241490B681A4080235B010C
:101580002B431A60802380229B012B4312011A6097
:10159000802380225B004B60294BD2022362394BAF
:1015A0005968914200D25A608022374B616A120119
:1015B000344D1A60002905D0606900F0EBFA013063
:1015C0000138FDD1E0222F490B681A4080235B01CE
:1015D0002B431A60802380229B012B4312011A6047
:1015E0008023DB024B60174B6362284B5A68FF2A4B
:1015F00002D8802252005A608022254BA169120134
:10160000224D1A60002905D0606900F0C3FA01304C
:101610000138FDD1E0221D490B681A4080235B018F
:101620002B431A60802380229B012B4312011A60F6
:1016300080235B004B600E4BA361E3E67403002044
:10164000006CDC021BB70000008000403CB0004092
:1016500030B00040002F68590080024000389C1CC8
:1016600000C0024030800040001BB7003C800040BA
:10167000405973075480004054B0004060800040DF
:1016800060B000406C8000406CB00040488000407A
:1016900048B00040014B8000C058704774030020E0
:1016A00001238340002904D0034A1360034A1360D6
:1016B0007047034A1360FBE780E200E000E100E0CE
:1016C00080E100E0024B10309B688000C0587047FA
:1016D00000ED00E070B50D00EFF3108672B60F4A12
:1016E0001368002BFCD0BFF35F8F0D4B10309B684D
:1016F00084001B590B4A934203D09D4201D0FFF74F
:1017000065FE074B9B681D51BFF35F8FBFF35F8F73
:101710000022024B1A6086F3108870BD240100D0AD
:1017200000ED00E0CD010010F0B5DE4657464E4614
:101730004546E0B50C0083B0EFF3108A72B65A4A02
:101740001368002BFCD0BFF35F8F102291468144B9
:101750004A46564B96009B689D59554B98469D426C
:1017600005D0A54216D0534FEB1B2F2B14D94F4B4E
:101770009B689D51BFF35F8FBFF35F8F00224A4B81
:101780001A608AF3108803B03CBC90469946A24682
:10179000AB46F0BD1D00EAE7012383409B465A4655
:1017A000454B1B681A4000925A46444B1A60BFF3DF
:1017B0005F8FFEF758FD0190002803D0814501D0CE
:1017C000FFF704FE01232A009A4393689C4208D144
:1017D00060E04B005B189B00FB189968A14211D098
:1017E0001A00062151560029F3DA009B002B05D080
:1017F0005A46334B1A60304B1A60B8E75A462F4BA3
:101800001A60B4E706215956002922DB4A00501815
:1018100080003C188046A0689860E079D871062066
:1018200020569871A0797F2824D8A488F81A6405D6
:10183000241544440019E0240005400D24022043EF
:10184000988052181F4B9200BF181A781970BA71FD
:10185000CBE70199002910D1FF3191711A4991808C
:1018600018490A789A71194ADB1B5B415A43120DD9
:101870000A70BAE7BD200002E2E7154A1549D21AFC
:10188000083A5002400D01439980134952080A4317
:10189000DA80AAE70621515613000029B6DA019A28
:1018A000002AEAD14546DBE7240100D000ED00E044
:1018B000CD010010A801002000E100E080E100E07F
:1018C00080E200E01504002000BDFFFFAAAA00008E
:1018D000E201002000F0FFFF00F8FFFFF8B501254E
:1018E00004000543FEF7BFFC0300EFF3108672B659
:1018F00021490A68002AFCD0BFF35F8F1F4A2000ED
:101900001F49801A40414143090D1E489B008768CA
:1019100049B2FF58AF421CD00623D3568B421CD08D
:101920001223D3568B4222D01E23D3568B4220D073
:101930002A23D35603208B4210D0134B1A781970E8
:10194000A271BFF35F8F00220B4B1A6086F31088E1
:10195000F8BD82680D48D050EFE7002043001B1807
:101960009B00D218FF239371094B9380E5E7012078
:10197000F4E70220F2E7C046240100D0A8010020CD
:10198000AAAA000000ED00E015040020CD0100101F
:1019900000BDFFFF054B064A1360064A1360536003
:1019A0009360D3601361536193617047808080803E
:1019B00000E400E004E400E0F8B504000C201700A7
:1019C0001D000E0000F0E6F84101091A8B01591ABA
:1019D000C90009188901380000F0DCF8069A2B04C8
:1019E000120313432268002A21DB194AA21851422C
:1019F0004A41802149018C4652420A4015496244BD
:101A00000A6015490A60154917008D68AF43FBD17C
:101A1000C021221D8901114321222660A0600A6095
:101A20002268002AFCDAE36008230B60F8BD3F223D
:101A300021680A40B242D8D1A2681205120D824232
:101A4000D3D1EE21E268C9020A409A42CDD1EDE736
:101A50000040FDBF00E0004000F0004000C000403A
:101A60008023024A9B000343D362704700800540F5
:101A7000AA23064A1B0113602F230549D360054B97
:101A800019605368002BFCDA7047C04600400240E2
:101A900000B0FA000060024010B5002800D110BD6F
:101AA00000F05CFAFBE7C04610B5094A0300146871
:101AB00084B0002C08D0012200910648524203A9AC
:101AC000A047012004B010BD00F09AFA0020F9E709
:101AD000E4030020991A001001480421014B184723
:101AE000F0010020091B0010142310B50100188814
:101AF00004331B88984710BD162310B501001888C1
:101B000002331B88984710BDF0B5C64600B50029C2
:101B100016D014230400012598461827890046187A
:101B20004346216818883B88984701C4431E984162
:101B300040420540A642F3D1280004BC9046F0BDC7
:101B40000125F9E7124A936F9B0815D29066D1667A
:101B5000002905D0FFE7FFE7FFE7516F106F7047DF
:101B600004B580210906C2175140002800D0C8439F
:101B700001F07AF8002104BDF0B5146E556E576F70
:101B8000166FFFF7E3FF1466556657671667F0BDDB
:101B9000000000D0114A936F9B0813D21066516663
:101BA000002905D0FFE7FFE7FFE7516F106F70478F
:101BB00004B5002801D00020C04301F055F80021F1
:101BC00004BDC046F0B5146E556E576F166FFFF723
:101BD000E5FF1466556657671667F0BD000000D034
:101BE000132370B51D78012D15D010DD2748FFF7A0
:101BF00083FF274C01008022200000F0D7F8022D3F
:101C000006D02448FFF770FF234B186070BD204CAE
:101C1000224AA264F5E72E001D4C204AA3085B422D
:101C20001E401D422FD0330022602020B1006118D9
:101C3000801B0A604A608A60CA600A614A618A61E0
:101C4000CA610A624A628A62CA620A634A638A6332
:101C5000CA630A644A648A64CA640A654A658A6512
:101C6000CA650A664A668A66CA660A674A6740089B
:101C7000102803D18A67CA67A264C2E71E339B009B
:101C8000E250A264BDE70023CFE7C0465344000002
:101C90001C0400204C330000F8030020A11C00109D
:101CA00007B5604601880A0A0230DF2AFAD1C9B2B4
:101CB000820804D3028840880004104300E00068D2
:101CC000014A5050039007BD1C0400205143434378
:101CD000C9188C46110C83B24B4310B4040C6143F9
:101CE00092B280B2504362431C041B0C001910BC1A
:101CF00059411304120CC01851416144704700004F
:101D0000132310B512481C78FFF7F6FE0100012CD2
:101D10000AD003DD80220F4800F048F80E48FFF794
:101D2000E3FE0E4B186010BD0A4C5422200000F058
:101D30003DF80B4B6365A365E36523666366A366A5
:101D4000E36623676367A367E3672362E361E5E70D
:101D5000534600001C0500204C330000F80300200F
:101D6000651D001007B5604601880A0A0230DF2AA7
:101D7000FAD1C9B2820804D3028840880004104313
:101D800000E00068014A5050039007BD1C05002088
:101D900001480421014B184700020020091B0010D4
:101DA000014B1B681847000000020020014B5B68D4
:101DB0001847000000020020030010B508001B684F
:101DC0001100984710BDC046F8B54746CE4680B5CD
:101DD000437C07000D001600002B37D000240020A4
:101DE000002A1EDD4B1E98461B4B9946002C2BD01B
:101DF00043461B5D0D3B5A425341DBB22A5D0A2A22
:101E000013D00134A642F1DC864203DD311A3B686F
:101E100028189847AD19013D2B780D3B5A42534184
:101E20003B740CBC90469946F8BD002BE9D1A0420A
:101E300003DA211A3B6828189847484602213B6874
:101E4000013498472000DDE73B7CD7E703681100A9
:101E500028009847E5E7C046C42D0010F0B5574666
:101E60004E464546DE461C00D023E0B51B061F68E3
:101E7000354B83B006000D00180001A991469A4623
:101E800000F0FAFE8046002808D1019B7FB29F42F5
:101E900004D0504600F0F8FE012398466B1C03D195
:101EA000300000F0A3FE0500002C2AD1274F284B5C
:101EB0001C68002C18D04B46002B24D1254B99468A
:101EC00002E0E468002C0FD02368002BF9D04B46C9
:101ED0001B68002B01D0A342F3D120002A0031005F
:101EE000B847E468002CEFD14346002B28D1681E88
:101EF0008541E8B203B03CBC90469946A246AB4649
:101F0000F0BD154FD3E7134B99460A239B4602E0D9
:101F1000E468002CE8D02368002BF9D04B461B68FE
:101F2000002B01D0A342F3D12A0031002000B84792
:101F30005A466B4620001A7101A90122B847E7E70B
:101F4000504600F089FED2E72C020020C91D001087
:101F5000DC030020E0030020B91D0010F0B5474667
:101F6000CE4680B583B06B46DF1CD02338701B068D
:101F70001C68204B060001A91800984600F07CFE62
:101F8000051E22D01C4B1C68002C2AD01B4B9946E6
:101F900002E0E468002C10D02368002BF9D04B46F7
:101FA0001B68002B01D0A342F3D12000012239008D
:101FB000FFF70AFFE468002CEED1002D11D13000AC
:101FC00003B00CBC90469946F0BD019B64B29C42A4
:101FD0000BD0404600F058FE074B01251C68002C32
:101FE000D4D1404600F038FEE9E7034B1C68002CD2
:101FF000CCD1E4E72C020020DC030020E003002029
:1020000070B5040000F0F2FD00230100050001227C
:102010002000FFF723FF084B1C68002C06D06368E4
:10202000002B05D09847E468002CF8D1280070BD3B
:10203000E468002CF3D1F9E7DC0300200A4A1368B6
:10204000002B05D10CE01A00DB680C32002B07D006
:102050009842F8D1002902D1C3681360C16070476B
:102060000029FCD01060FAE7DC03002010B500F076
:1020700043F810BDF0B50D1E15DD0E4B0D271A6887
:102080000D4B4519D31859424B410C495B005E5E1C
:1020900020210478A64207D093691942FCD101306F
:1020A0001460A842F5D1F0BD93691942FCD11760C4
:1020B000F2E7C046100400200080FCBF1804002096
:1020C00030B50500002912DD00201024094B013D28
:1020D0001A6893691C4208D1013093691C42FCD1F3
:1020E00013682B548142F4D130BD0028FCD1032069
:1020F0004042F9E710040020E12110B50B4B0C48D9
:102100001B780C4B49021B780B4B1860FEF718FA32
:1021100002210020FEF780F902210120FEF77CF960
:1021200001210648FFF78AFF10BDC046E82E0010C7
:1021300000400340EC2E001010040020100200208C
:10214000F8B5DE4657464E4645468346E0B505207F
:102150000C00FFF79FFA0600600821008019FFF7C6
:1021600019FD430098468044070005214046FFF7CB
:1021700011FD3B1A9A46204B8146700080199C4203
:1021800034D81E49FFF706FD451C5B461C6800233A
:10219000E36622680433534006221A4080235B0121
:1021A00023431A605346E3614B46236243460120B2
:1021B0004F2B03D950214046FFF7ECFCA02322000F
:1021C000E0508023E06F7C3245402D045B011343D7
:1021D0002D0C1D60012339003000E366FFF7DAFCA7
:1021E0003CBC90469946A246AB46F8BD0449FFF771
:1021F000D1FC451CC9E7C0463F420F0080969800BD
:1022000040787D01104A70B5821A53425A41072323
:1022100052429A430D4B10321A600D4B0D4C1A600E
:102220001500A3689D432B1EFAD166240268FF3473
:102230000571D5661460633C8833FF3CD5639563B4
:10224000D450FFF77DFF70BD2402002000E0004065
:1022500000F0004000C00040F0B54546DE4657465D
:102260004E46E0B583B005000CA800782C68844683
:102270000020E06661600121E166002B55DD591EFA
:102280008846012761464F4010218A4670318946B1
:1022900046467F0200930021002803D129794B1E76
:1022A0009941890200239846864236D0135C19432F
:1022B00043461943009B216198465346616B0B428C
:1022C000FBD0434600934B46E3589846002B0ED173
:1022D000864224D0009B01308342DCD163462B71BF
:1022E00003B03CBC90469946A246AB46F0BD616D3A
:1022F000012101928022636B92001342FAD0019A6D
:10230000236E0029E6D04146002903D0CB0701D433
:102310000B07E3D402204042E0E7B846C6E7634635
:10232000002BD7D100210192E4E70020D6E7C04678
:10233000F0B5D6464F464646C0B5050008A8007819
:102340002C6884460020E06661600121E166002B74
:102350003ADD591E8846012661464E4080214900DB
:102360008A46803989467602616F1029FCD00028A0
:1023700022D0802700217F00404512D0276102E053
:10238000A16F002911D149466158616D0029F7D02C
:102390000220404263462B711CBC90469946A246DF
:1023A000F0BD574631430F43E8E72169115401302E
:1023B0008342EFD02C68D7E729790029D9D0A0270C
:1023C0008021FF00C900D7E70020E3E770B5802532
:1023D000D024AD042E0019202406FEF74DF86562C6
:1023E000FA206661FEF7D4FBFA20A561FEF7D0FB68
:1023F000F6E7C046F0B5050085B0032947D031D8CF
:10240000012942D002291CD14679FF2E19D0782308
:102410001A0005243240334215D0782A26D00027EE
:102420000F2201233100286800976A44FFF780FFDC
:1024300000282EDA013C6420E4B2FEF7A9FB002C50
:10244000EED1FFF7C3FF013C6420E4B2FEF7A0FB2E
:10245000002CF6D0013C6420E4B2FEF799FB002C7E
:10246000F1D1EEE70429ECD1C679CEE7013C642036
:10247000E4B2FEF78DFB002CE3D0013C6420E4B213
:10248000FEF786FB002CF1D1DBE70679BDE7867904
:10249000BBE7012005B0F0BDF0B5D6464F46464635
:1024A0000123C0B58372437A050084B0002B48D065
:1024B00001230F26994698467F27FE3301249A462A
:1024C0006E447F424346AB726B7B5B003B43DBB2A7
:1024D000032C2FD0032C1BD8012C2DD05146022CBD
:1024E00000D16979337000233200009328680133EA
:1024F000FFF7B2FE0134E4B2831C0ED06B7AA34224
:10250000E0D2484604B01CBC90469946A246F0BDB5
:10251000FF21042CE6D1E979E4E76B7AA3420DD3DD
:10252000002399464346AB726B7B5B003B43DBB2B7
:10253000032CCFD1A979D5E72979D3E70023994690
:10254000DFE701239946DCE7F0B5D6464F4646461D
:10255000C0B5437A050084B0002B7BD00123984698
:10256000FE330F269A46DE3B0124994600276E442F
:10257000032C00D189E0032C70D8012C00D186E017
:102580005146022C00D169794B46320033702868DD
:1025900001230097FFF760FE831C69D00120FEF73E
:1025A000F7FA01346B7AE4B29C42E1D94246002A40
:1025B0007DD0002B4ED00F239946F03301249A464C
:1025C000EF274A462B199A73032C6CD0032C4AD858
:1025D000012C6AD05146022C00D169790023377052
:1025E0003200009328680133FFF736FE0134E4B26D
:1025F000831C4ED06B7A9C42E3D94246002A56D0C7
:10260000002B27D080235B4299468033FF3301247F
:1026100000279A464A46AB7A6F731343DBB2032C0A
:102620005DD0032C4AD8012C5BD05146022C00D13E
:10263000697933703200012328680097FFF70CFE98
:102640000134E4B2831C3ED06B7AA342E2D243460B
:10265000002B2CD02800FFF71FFF29E0FF21042CBE
:1026600092D1E97990E7FF21042CB7D1E979B5E758
:102670000120FEF78DFA01346B7AE4B2A34216D33F
:1026800000239846032C00D075E7A9797CE72979C7
:102690007AE76B7AA3420AD300234A4698462B195D
:1026A0009A73032C92D1A97998E7297996E70020AB
:1026B00004B01CBC90469946A246F0BDFF21042CF4
:1026C000B7D1E979B5E76B7AA342F0D300234A4644
:1026D0009846AB7A6F731343DBB2032CA1D1A9796F
:1026E000A7E72979A5E7C046F0B500230C00010053
:1026F00005000D2089B003AE3370631E12311B013B
:102700001022C9186844FFF751FB032C21D018D8B8
:10271000012C1CD0022C18D16F7921002800FFF762
:1027200069FE00280BD000233200009339001133DA
:102730002868FFF791FD0230431E9841C0B209B0EE
:10274000F0BD042C01D1EF79E7E7FF27E5E72F790A
:10275000E3E7AF79E1E7C046F8B5050006A8140243
:10276000007821431E040406314321436960FF2899
:1027700045D004236B72079B2B600124062609E0D9
:102780002B199E736420FEF703FA01346B7AE4B2CE
:10279000A34208D321002800FFF72CFE0028EFD128
:1027A00000263000F8BD2800FFF7CEFE061EF7D049
:1027B0006F7A0022002300213C01002F06D0013354
:1027C000AA18DBB291741A00A342F8DB00232B7223
:1027D000002F10D00700012421002800FFF784FFFC
:1027E000431E984101346B7A4042E4B20740A34251
:1027F000F2D2002FD4D062230022EA54D1E7FF2B7B
:1028000004D003236B72079B2B60B6E7FF2A04D02A
:1028100002236B72079B2B60AFE701236B72079B50
:102820002B60AAE7F8B504001500202900D1D9E0F3
:102830000B00213B5D2B00D8BFE091080901904BB4
:10284000C9B2032601202E40B0406718BA7C02436B
:10285000BA749A0700D4C9E0032701262F40BE406E
:102860008A1CD2B2A218907C304390745A0700D4CC
:10287000BFE0032701262F40BE400A1DD2B2A21896
:10288000907C304390741A0700D4B5E003270126EA
:102890002F40BE408A1DD2B2A218907C3043907463
:1028A000DA0600D4ABE0032701260A002F40BE4021
:1028B0000832D2B2A218907C304390749A0600D4A9
:1028C000A0E0032701260A002F40BE400A32D2B200
:1028D000A218907C304390745A0600D495E00327E8
:1028E00001260A002F40BE400C32D2B2A218907CC2
:1028F000304390741A0600D48AE003200127284050
:102900000430874038008A1CD2B2A218967C30432B
:102910009074DA057ED5032201262A4004329640BF
:1029200032006718B87C0243BA749A0574D5032044
:10293000012728400430874038000A1DD2B2A2186F
:10294000967C304390745A0568D5032001272840AF
:102950000430874038008A1DD2B2A218967C3043DA
:1029600090741A055CD50320012728400430874065
:102970000A0038000832D2B2A218967C3043907414
:10298000DA044FD5032001272840043087400A008D
:1029900038000A32D2B2A218967C304390749B045D
:1029A00042D5032215400435023AAA400C31C9B27F
:1029B0006418A37C1343A37436E0037A203989B2E8
:1029C0009B080E293BD01A2950D1012201211B015D
:1029D0000133C31802739A7C01260A439A74437A1E
:1029E000002B22D10023A9080901C9B25A0700D53A
:1029F0003FE71A0700D549E7DA0600D553E79A06FC
:102A000000D55EE75A0600D569E71A0600D574E7D7
:102A1000DA0580D49A058AD45A0596D41A05A2D428
:102A2000DA04AFD49B04BCD4F8BD31002000FFF71A
:102A30005BFE0136637AF6B2B342F6D2D2E70122E8
:102A400001211B010333C318C2729A7C01260A4379
:102A50009A74437A002BC5D031002000FFF744FE62
:102A60000136637AF6B2B342F6D2BBE7054B4900B2
:102A7000CB5A91080901C9B2DA0700D5E1E6E8E6C8
:102A8000FF3F0000082E0010F0B545464E46DE46DA
:102A90005746E0B5467A05000C0090460023002218
:102AA000002189B03001002E06D00133AA18DBB214
:102AB00091741A008342F8DB00232B724346E71817
:102AC000002B13D120E0310028002A7AFFF7AAFE5C
:102AD000287A2B1852331E70697A0130C0B28900EF
:102AE000FFF730F829720134BC420CD026782E2E24
:102AF0003ED03A2EE7D100223A2128000134FFF7D8
:102B000091FEBC42F2D16E7A002E42D01223994639
:102B1000ED33012400279A46A94403AE16E0D346BC
:102B2000022C01D16B799B4621002800FFF762FC43
:102B3000002806D011233200594628680097FFF775
:102B40008BFB01346B7AE4B2A34222D30D23611EC6
:102B500009016B441022180049443770FFF726F929
:102B6000032C13D00AD8012CD9D12B799B46DBE753
:102B700000222E212800FFF755FEB4E7042C02D1D5
:102B8000EB799B46D0E7FF239B46CDE7AB799B468D
:102B9000CAE7404609B03CBC90469946A246AB46BF
:102BA000F0BDC046F8B54746CE4680B5477A060028
:102BB000BF00002A14D0FF2398463B4014009946DA
:102BC0008D184A46291BA74201D3424622403000B5
:102BD000FFF75AFF013CFA20FDF7DAFF002CF0D195
:102BE00000200CBC90469946F8BDC04610B583073E
:102BF00027D00378002B26D00300032102E01A78A7
:102C0000002A1CD001330B42F9D119680F4A104C2D
:102C10008A188A4322420FD1043319680B4A8A1852
:102C20008A43224208D104331968084A8A188A4321
:102C30002242F1D000E001331A78002AFBD1181AA1
:102C400010BD0300E1E70020FAE7C046FFFEFEFEEC
:102C500080808080F8B5C04601B40248844601BC3B
:102C6000604700BF5101002001B40248844601BC06
:102C7000604700BF7901002001B40248844601BCCE
:102C8000604700BF0901002001B40248844601BC2E
:082C9000604700BFC1000020F5
:102C9800534F4D4554494D455320594F5552204A9D
:102CA8004F592049532054484520534F55524345C6
:102CB800204F4620594F555220534D494C452C2002
:102CC80042555420534F4D4554494D455320594F73
:102CD80055522053494D4C452043414E20424520F2
:102CE80054484520534F55524345204F4620594F8D
:102CF8005552204A4F590000000000000000000013
:102D08000000000000000000000000000800525011
:102D18001A520A00486172647761726520616C61B9
:102D2800726D20256420616C726561647920636C22
:102D380061696D65640000000A2A2A2A2050414E04
:102D48004943202A2A2A0A000A00000048617264BE
:102D5800206173736572740052656C6561736500F8
:102D6800626F6F74325F773235713038300000002F
:102D7800312E332E310000007069636F00000000AF
:102D88006C65645F626C696E6B0000004A756E204A
:102D9800333020323032320006005250BBFF3CB68E
:102DA800802D001006005250E182887F682D0010A7
:102DB80006005250D3F07542602D00100D0A000035
:102DC8005541525420737464696E00005541525441
:102DD800207374646F757400554152542073746481
:102DE800696E202F207374646F757400060052504A
:102DF80053B4F4A1E02D00100800525092000000D6
:102E08000000080202024E136D132424D90C00029C
:102E180039000F00803E40130020400100000024CC
:102E28003F0006045B014F0166016D017D0101143D
:102E38007F01670100000022000C48018010031187
:102E48003B0377010F1339000F12790171013D011E
:102E5800760109121E00700C3800B604B6083F004F
:102E680073013F0873098D0101123E003024362892
:102E7800802C80140924390080080F0000280800DD
:102E880080005F01780858010E21790071008F01D8
:102E9800740100100E00001E0012541150085C014D
:102EA8007104630950008D0178001C00102014285B
:102EB800802C0E030924C9200012090D5201FF3F7E
:102EC800142D0010B4020010A80200109C0200107B
:102ED800A02D001090020010AC2D0010B82D00108D
:082EE800F42D0010002E001073
:102EF000D02330B500251B0600245D5706E003688B
:102F0000BFF35F8F1C6081F3108820BF0268EFF36E
:102F1000108172B61368002BFCD0BFF35F8F03796A
:102F20007F2BECD905710368BFF35F8F00221A6015
:102F300081F3108830BDC046030010B50068EFF380
:102F4000108472B60268002AFCD0BFF35F8F04229F
:102F50009A56002A0BDB00290FD000200A601B685C
:102F6000BFF35F8F00221A6084F3108810BDD02257
:102F70001206126801201A71F1E70020EFE7C0463F
:102F80000268EFF3108172B61368002BFCD0BFF318
:102F90005F8FFF2303710368BFF35F8F00221A6006
:102FA00081F3108840BF70477047C0460110000091
:102FB0009801002000000000480200209C0300202F
:102FC0000000000000000000AC0300200000000032
:102FD00000000000100000000000000000000100E0
:102FE00000000000000000000000020000000000DF
:102FF00000000000000003000000000000000000CE
:103000000000FF000000000000B5486801318E4656
:103010000047704609380149884700BDDD18001097
:10302000503300004C330000543300005233000092
:103030004D5300004D430000533400004334000062
:103040007520001000000000C120001000000000EA
:1030500000010000004004400000000000000000EB
:1030600000000000911D0010D91A0010E11B001093
:08307000011D001039030010DE
:04000005100001E9FD
:00000001FF
